{
  "contractName": "TasksContract",
  "abi": [
    {
      "inputs": [],
      "stateMutability": "nonpayable",
      "type": "constructor"
    },
    {
      "anonymous": false,
      "inputs": [
        {
          "indexed": false,
          "internalType": "uint256",
          "name": "id",
          "type": "uint256"
        },
        {
          "indexed": false,
          "internalType": "string",
          "name": "title",
          "type": "string"
        },
        {
          "indexed": false,
          "internalType": "string",
          "name": "description",
          "type": "string"
        },
        {
          "indexed": false,
          "internalType": "bool",
          "name": "done",
          "type": "bool"
        },
        {
          "indexed": false,
          "internalType": "uint256",
          "name": "createdAt",
          "type": "uint256"
        }
      ],
      "name": "TaskCreated",
      "type": "event"
    },
    {
      "anonymous": false,
      "inputs": [
        {
          "indexed": false,
          "internalType": "uint256",
          "name": "id",
          "type": "uint256"
        },
        {
          "indexed": false,
          "internalType": "bool",
          "name": "done",
          "type": "bool"
        }
      ],
      "name": "TaskToggleDone",
      "type": "event"
    },
    {
      "inputs": [],
      "name": "taskCounter",
      "outputs": [
        {
          "internalType": "uint256",
          "name": "",
          "type": "uint256"
        }
      ],
      "stateMutability": "view",
      "type": "function",
      "constant": true
    },
    {
      "inputs": [
        {
          "internalType": "uint256",
          "name": "",
          "type": "uint256"
        }
      ],
      "name": "tasks",
      "outputs": [
        {
          "internalType": "uint256",
          "name": "id",
          "type": "uint256"
        },
        {
          "internalType": "string",
          "name": "title",
          "type": "string"
        },
        {
          "internalType": "string",
          "name": "description",
          "type": "string"
        },
        {
          "internalType": "bool",
          "name": "done",
          "type": "bool"
        },
        {
          "internalType": "uint256",
          "name": "createdAt",
          "type": "uint256"
        }
      ],
      "stateMutability": "view",
      "type": "function",
      "constant": true
    },
    {
      "inputs": [
        {
          "internalType": "string",
          "name": "_title",
          "type": "string"
        },
        {
          "internalType": "string",
          "name": "_description",
          "type": "string"
        }
      ],
      "name": "createTask",
      "outputs": [],
      "stateMutability": "nonpayable",
      "type": "function"
    },
    {
      "inputs": [
        {
          "internalType": "uint256",
          "name": "_id",
          "type": "uint256"
        }
      ],
      "name": "toggleDone",
      "outputs": [],
      "stateMutability": "nonpayable",
      "type": "function"
    }
  ],
  "bytecode": "0x6080604052600080553480156200001557600080fd5b50620000926040518060400160405280601a81526020017f4d69207072696d657220746172656120646520656a656d706c6f0000000000008152506040518060400160405280601c81526020017f6465736372697063696f6e20646520656a656d706c6f203a44202121000000008152506200009860201b60201c565b62000487565b600080815480929190620000ac90620003ca565b91905055506040518060a00160405280600054815260200183815260200182815260200160001515815260200142815250600160008054815260200190815260200160002060008201518160000155602082015181600101908051906020019062000119929190620001ae565b50604082015181600201908051906020019062000138929190620001ae565b5060608201518160030160006101000a81548160ff021916908315150217905550608082015181600401559050507f6549102bed7d1bb5ec529ee14e2ca60ffc1f47f66d4cc6ca713220613cc64c256000548383600042604051620001a2959493929190620002c1565b60405180910390a15050565b828054620001bc9062000394565b90600052602060002090601f016020900481019282620001e057600085556200022c565b82601f10620001fb57805160ff19168380011785556200022c565b828001600101855582156200022c579182015b828111156200022b5782518255916020019190600101906200020e565b5b5090506200023b91906200023f565b5090565b5b808211156200025a57600081600090555060010162000240565b5090565b620002698162000348565b82525050565b60006200027c826200032c565b62000288818562000337565b93506200029a8185602086016200035e565b620002a58162000476565b840191505092915050565b620002bb8162000354565b82525050565b600060a082019050620002d86000830188620002b0565b8181036020830152620002ec81876200026f565b905081810360408301526200030281866200026f565b90506200031360608301856200025e565b620003226080830184620002b0565b9695505050505050565b600081519050919050565b600082825260208201905092915050565b60008115159050919050565b6000819050919050565b60005b838110156200037e57808201518184015260208101905062000361565b838111156200038e576000848401525b50505050565b60006002820490506001821680620003ad57607f821691505b60208210811415620003c457620003c362000447565b5b50919050565b6000620003d78262000354565b91507fffffffffffffffffffffffffffffffffffffffffffffffffffffffffffffffff8214156200040d576200040c62000418565b5b600182019050919050565b7f4e487b7100000000000000000000000000000000000000000000000000000000600052601160045260246000fd5b7f4e487b7100000000000000000000000000000000000000000000000000000000600052602260045260246000fd5b6000601f19601f8301169050919050565b610ad080620004976000396000f3fe608060405234801561001057600080fd5b506004361061004c5760003560e01c8063292a458514610051578063586717301461006d5780638d9776721461008b578063d81ef739146100bf575b600080fd5b61006b600480360381019061006691906106ba565b6100db565b005b6100756101e9565b60405161008291906107b6565b60405180910390f35b6100a560048036038101906100a09190610732565b6101ef565b6040516100b69594939291906107fa565b60405180910390f35b6100d960048036038101906100d49190610732565b610342565b005b6000808154809291906100ed90610988565b91905055506040518060a001604052806000548152602001838152602001828152602001600015158152602001428152506001600080548152602001908152602001600020600082015181600001556020820151816001019080519060200190610158929190610592565b506040820151816002019080519060200190610175929190610592565b5060608201518160030160006101000a81548160ff021916908315150217905550608082015181600401559050507f6549102bed7d1bb5ec529ee14e2ca60ffc1f47f66d4cc6ca713220613cc64c2560005483836000426040516101dd9594939291906107fa565b60405180910390a15050565b60005481565b600160205280600052604060002060009150905080600001549080600101805461021890610925565b80601f016020809104026020016040519081016040528092919081815260200182805461024490610925565b80156102915780601f1061026657610100808354040283529160200191610291565b820191906000526020600020905b81548152906001019060200180831161027457829003601f168201915b5050505050908060020180546102a690610925565b80601f01602080910402602001604051908101604052809291908181526020018280546102d290610925565b801561031f5780601f106102f45761010080835404028352916020019161031f565b820191906000526020600020905b81548152906001019060200180831161030257829003601f168201915b5050505050908060030160009054906101000a900460ff16908060040154905085565b6000600160008381526020019081526020016000206040518060a00160405290816000820154815260200160018201805461037c90610925565b80601f01602080910402602001604051908101604052809291908181526020018280546103a890610925565b80156103f55780601f106103ca576101008083540402835291602001916103f5565b820191906000526020600020905b8154815290600101906020018083116103d857829003601f168201915b5050505050815260200160028201805461040e90610925565b80601f016020809104026020016040519081016040528092919081815260200182805461043a90610925565b80156104875780601f1061045c57610100808354040283529160200191610487565b820191906000526020600020905b81548152906001019060200180831161046a57829003601f168201915b505050505081526020016003820160009054906101000a900460ff1615151515815260200160048201548152505090508060600151158160600190151590811515815250508060016000848152602001908152602001600020600082015181600001556020820151816001019080519060200190610506929190610592565b506040820151816002019080519060200190610523929190610592565b5060608201518160030160006101000a81548160ff021916908315150217905550608082015181600401559050507f389dee00d487dd41dd5bf0f43eeaa5b663b3af022d52368df89d388150295f458282606001516040516105869291906107d1565b60405180910390a15050565b82805461059e90610925565b90600052602060002090601f0160209004810192826105c05760008555610607565b82601f106105d957805160ff1916838001178555610607565b82800160010185558215610607579182015b828111156106065782518255916020019190600101906105eb565b5b5090506106149190610618565b5090565b5b80821115610631576000816000905550600101610619565b5090565b600061064861064384610880565b61085b565b90508281526020810184848401111561066457610663610a63565b5b61066f8482856108e3565b509392505050565b600082601f83011261068c5761068b610a5e565b5b813561069c848260208601610635565b91505092915050565b6000813590506106b481610a83565b92915050565b600080604083850312156106d1576106d0610a6d565b5b600083013567ffffffffffffffff8111156106ef576106ee610a68565b5b6106fb85828601610677565b925050602083013567ffffffffffffffff81111561071c5761071b610a68565b5b61072885828601610677565b9150509250929050565b60006020828403121561074857610747610a6d565b5b6000610756848285016106a5565b91505092915050565b610768816108cd565b82525050565b6000610779826108b1565b61078381856108bc565b93506107938185602086016108f2565b61079c81610a72565b840191505092915050565b6107b0816108d9565b82525050565b60006020820190506107cb60008301846107a7565b92915050565b60006040820190506107e660008301856107a7565b6107f3602083018461075f565b9392505050565b600060a08201905061080f60008301886107a7565b8181036020830152610821818761076e565b90508181036040830152610835818661076e565b9050610844606083018561075f565b61085160808301846107a7565b9695505050505050565b6000610865610876565b90506108718282610957565b919050565b6000604051905090565b600067ffffffffffffffff82111561089b5761089a610a2f565b5b6108a482610a72565b9050602081019050919050565b600081519050919050565b600082825260208201905092915050565b60008115159050919050565b6000819050919050565b82818337600083830152505050565b60005b838110156109105780820151818401526020810190506108f5565b8381111561091f576000848401525b50505050565b6000600282049050600182168061093d57607f821691505b6020821081141561095157610950610a00565b5b50919050565b61096082610a72565b810181811067ffffffffffffffff8211171561097f5761097e610a2f565b5b80604052505050565b6000610993826108d9565b91507fffffffffffffffffffffffffffffffffffffffffffffffffffffffffffffffff8214156109c6576109c56109d1565b5b600182019050919050565b7f4e487b7100000000000000000000000000000000000000000000000000000000600052601160045260246000fd5b7f4e487b7100000000000000000000000000000000000000000000000000000000600052602260045260246000fd5b7f4e487b7100000000000000000000000000000000000000000000000000000000600052604160045260246000fd5b600080fd5b600080fd5b600080fd5b600080fd5b6000601f19601f8301169050919050565b610a8c816108d9565b8114610a9757600080fd5b5056fea264697066735822122003bea2992da24992df3e4c1f92f8b1fb88adcd20a91e400db5fc759475089bf364736f6c63430008060033",
  "immutableReferences": {},
  "source": "// SPDX-License-Identifier: MIT\r\npragma solidity ^0.8.6;\r\n\r\ncontract TasksContract {\r\n    \r\n    uint256 public taskCounter = 0;\r\n\r\n    constructor (){\r\n        createTask(\"Mi primer tarea de ejemplo\", \"descripcion de ejemplo :D !!\");\r\n    }\r\n\r\n    event TaskCreated(\r\n        uint id,\r\n        string title,\r\n        string description,\r\n        bool done,\r\n        uint createdAt\r\n    );\r\n\r\n    event TaskToggleDone (\r\n        uint id, bool done\r\n    );\r\n\r\n    struct Task {\r\n        uint256 id;\r\n        string title;\r\n        string description;\r\n        bool done;\r\n        uint256 createdAt; \r\n    }\r\n\r\n    mapping  (uint256 => Task ) public tasks;\r\n\r\n    function createTask(string memory _title, string memory _description) public {\r\n        taskCounter++;\r\n        tasks[taskCounter] = Task(taskCounter, _title, _description, false, block.timestamp);\r\n        emit TaskCreated(taskCounter, _title, _description, false, block.timestamp);\r\n    }\r\n\r\n    function toggleDone(uint _id) public {\r\n        Task memory _task = tasks[_id];\r\n        _task.done = !_task.done;\r\n        tasks[_id] = _task;\r\n        emit TaskToggleDone(_id, _task.done);\r\n    }\r\n\r\n}",
  "sourcePath": "D:\\workspace\\myfirstcontract\\contracts\\TasksContract.sol",
  "compiler": {
    "name": "solc",
    "version": "0.8.6+commit.11564f7e.Emscripten.clang"
  },
  "schemaVersion": "3.4.9",
  "updatedAt": "2022-09-14T09:53:33.508Z",
  "networkType": "ethereum",
  "devdoc": {
    "kind": "dev",
    "methods": {},
    "version": 1
  },
  "userdoc": {
    "kind": "user",
    "methods": {},
    "version": 1
  }
}