{
  "contractName": "TasksContract",
  "abi": [
    {
      "inputs": [],
      "stateMutability": "nonpayable",
      "type": "constructor"
    },
    {
      "inputs": [],
      "name": "taskCounter",
      "outputs": [
        {
          "internalType": "uint256",
          "name": "",
          "type": "uint256"
        }
      ],
      "stateMutability": "view",
      "type": "function",
      "constant": true
    },
    {
      "inputs": [
        {
          "internalType": "uint256",
          "name": "",
          "type": "uint256"
        }
      ],
      "name": "tasks",
      "outputs": [
        {
          "internalType": "uint256",
          "name": "id",
          "type": "uint256"
        },
        {
          "internalType": "string",
          "name": "title",
          "type": "string"
        },
        {
          "internalType": "string",
          "name": "description",
          "type": "string"
        },
        {
          "internalType": "bool",
          "name": "done",
          "type": "bool"
        },
        {
          "internalType": "uint256",
          "name": "createdAt",
          "type": "uint256"
        }
      ],
      "stateMutability": "view",
      "type": "function",
      "constant": true
    },
    {
      "inputs": [
        {
          "internalType": "string",
          "name": "_title",
          "type": "string"
        },
        {
          "internalType": "string",
          "name": "_description",
          "type": "string"
        }
      ],
      "name": "createTask",
      "outputs": [],
      "stateMutability": "nonpayable",
      "type": "function"
    },
    {
      "inputs": [
        {
          "internalType": "uint256",
          "name": "_id",
          "type": "uint256"
        }
      ],
      "name": "toggleDone",
      "outputs": [],
      "stateMutability": "nonpayable",
      "type": "function"
    }
  ],
  "bytecode": "0x6080604052600080553480156200001557600080fd5b50620000926040518060400160405280601a81526020017f4d69207072696d657220746172656120646520656a656d706c6f0000000000008152506040518060400160405280601c81526020017f6465736372697063696f6e20646520656a656d706c6f203a44202121000000008152506200009860201b60201c565b62000306565b6040518060a001604052806000548152602001838152602001828152602001600015158152602001428152506001600080548152602001908152602001600020600082015181600001556020820151816001019080519060200190620001009291906200016a565b5060408201518160020190805190602001906200011f9291906200016a565b5060608201518160030160006101000a81548160ff0219169083151502179055506080820151816004015590505060008081548092919062000161906200025a565b91905055505050565b828054620001789062000224565b90600052602060002090601f0160209004810192826200019c5760008555620001e8565b82601f10620001b757805160ff1916838001178555620001e8565b82800160010185558215620001e8579182015b82811115620001e7578251825591602001919060010190620001ca565b5b509050620001f79190620001fb565b5090565b5b8082111562000216576000816000905550600101620001fc565b5090565b6000819050919050565b600060028204905060018216806200023d57607f821691505b60208210811415620002545762000253620002d7565b5b50919050565b600062000267826200021a565b91507fffffffffffffffffffffffffffffffffffffffffffffffffffffffffffffffff8214156200029d576200029c620002a8565b5b600182019050919050565b7f4e487b7100000000000000000000000000000000000000000000000000000000600052601160045260246000fd5b7f4e487b7100000000000000000000000000000000000000000000000000000000600052602260045260246000fd5b610a2880620003166000396000f3fe608060405234801561001057600080fd5b506004361061004c5760003560e01c8063292a458514610051578063586717301461006d5780638d9776721461008b578063d81ef739146100bf575b600080fd5b61006b6004803603810190610066919061063b565b6100db565b005b6100756101a7565b6040516100829190610737565b60405180910390f35b6100a560048036038101906100a091906106b3565b6101ad565b6040516100b6959493929190610752565b60405180910390f35b6100d960048036038101906100d491906106b3565b610300565b005b6040518060a001604052806000548152602001838152602001828152602001600015158152602001428152506001600080548152602001908152602001600020600082015181600001556020820151816001019080519060200190610141929190610513565b50604082015181600201908051906020019061015e929190610513565b5060608201518160030160006101000a81548160ff0219169083151502179055506080820151816004015590505060008081548092919061019e906108e0565b91905055505050565b60005481565b60016020528060005260406000206000915090508060000154908060010180546101d69061087d565b80601f01602080910402602001604051908101604052809291908181526020018280546102029061087d565b801561024f5780601f106102245761010080835404028352916020019161024f565b820191906000526020600020905b81548152906001019060200180831161023257829003601f168201915b5050505050908060020180546102649061087d565b80601f01602080910402602001604051908101604052809291908181526020018280546102909061087d565b80156102dd5780601f106102b2576101008083540402835291602001916102dd565b820191906000526020600020905b8154815290600101906020018083116102c057829003601f168201915b5050505050908060030160009054906101000a900460ff16908060040154905085565b6000600160008381526020019081526020016000206040518060a00160405290816000820154815260200160018201805461033a9061087d565b80601f01602080910402602001604051908101604052809291908181526020018280546103669061087d565b80156103b35780601f10610388576101008083540402835291602001916103b3565b820191906000526020600020905b81548152906001019060200180831161039657829003601f168201915b505050505081526020016002820180546103cc9061087d565b80601f01602080910402602001604051908101604052809291908181526020018280546103f89061087d565b80156104455780601f1061041a57610100808354040283529160200191610445565b820191906000526020600020905b81548152906001019060200180831161042857829003601f168201915b505050505081526020016003820160009054906101000a900460ff16151515158152602001600482015481525050905080606001511581606001901515908115158152505080600160008481526020019081526020016000206000820151816000015560208201518160010190805190602001906104c4929190610513565b5060408201518160020190805190602001906104e1929190610513565b5060608201518160030160006101000a81548160ff021916908315150217905550608082015181600401559050505050565b82805461051f9061087d565b90600052602060002090601f0160209004810192826105415760008555610588565b82601f1061055a57805160ff1916838001178555610588565b82800160010185558215610588579182015b8281111561058757825182559160200191906001019061056c565b5b5090506105959190610599565b5090565b5b808211156105b257600081600090555060010161059a565b5090565b60006105c96105c4846107d8565b6107b3565b9050828152602081018484840111156105e5576105e46109bb565b5b6105f084828561083b565b509392505050565b600082601f83011261060d5761060c6109b6565b5b813561061d8482602086016105b6565b91505092915050565b600081359050610635816109db565b92915050565b60008060408385031215610652576106516109c5565b5b600083013567ffffffffffffffff8111156106705761066f6109c0565b5b61067c858286016105f8565b925050602083013567ffffffffffffffff81111561069d5761069c6109c0565b5b6106a9858286016105f8565b9150509250929050565b6000602082840312156106c9576106c86109c5565b5b60006106d784828501610626565b91505092915050565b6106e981610825565b82525050565b60006106fa82610809565b6107048185610814565b935061071481856020860161084a565b61071d816109ca565b840191505092915050565b61073181610831565b82525050565b600060208201905061074c6000830184610728565b92915050565b600060a0820190506107676000830188610728565b818103602083015261077981876106ef565b9050818103604083015261078d81866106ef565b905061079c60608301856106e0565b6107a96080830184610728565b9695505050505050565b60006107bd6107ce565b90506107c982826108af565b919050565b6000604051905090565b600067ffffffffffffffff8211156107f3576107f2610987565b5b6107fc826109ca565b9050602081019050919050565b600081519050919050565b600082825260208201905092915050565b60008115159050919050565b6000819050919050565b82818337600083830152505050565b60005b8381101561086857808201518184015260208101905061084d565b83811115610877576000848401525b50505050565b6000600282049050600182168061089557607f821691505b602082108114156108a9576108a8610958565b5b50919050565b6108b8826109ca565b810181811067ffffffffffffffff821117156108d7576108d6610987565b5b80604052505050565b60006108eb82610831565b91507fffffffffffffffffffffffffffffffffffffffffffffffffffffffffffffffff82141561091e5761091d610929565b5b600182019050919050565b7f4e487b7100000000000000000000000000000000000000000000000000000000600052601160045260246000fd5b7f4e487b7100000000000000000000000000000000000000000000000000000000600052602260045260246000fd5b7f4e487b7100000000000000000000000000000000000000000000000000000000600052604160045260246000fd5b600080fd5b600080fd5b600080fd5b600080fd5b6000601f19601f8301169050919050565b6109e481610831565b81146109ef57600080fd5b5056fea2646970667358221220f5514de27c3ab2469e9d56c3c6defc7ba5ffb7b5d78f47da56471b0737f4369064736f6c63430008060033",
  "immutableReferences": {},
  "source": "// SPDX-License-Identifier: MIT\r\npragma solidity ^0.8.6;\r\n\r\ncontract TasksContract {\r\n    \r\n    uint256 public taskCounter = 0;\r\n\r\n    constructor (){\r\n        createTask(\"Mi primer tarea de ejemplo\", \"descripcion de ejemplo :D !!\");\r\n    }\r\n\r\n    struct Task {\r\n        uint256 id;\r\n        string title;\r\n        string description;\r\n        bool done;\r\n        uint256 createdAt; \r\n    }\r\n\r\n    mapping  (uint256 => Task ) public tasks;\r\n\r\n    function createTask(string memory _title, string memory _description) public {\r\n        tasks[taskCounter] = Task(taskCounter, _title, _description, false, block.timestamp);\r\n        taskCounter++;\r\n    }\r\n\r\n    function toggleDone(uint _id) public {\r\n        Task memory _task = tasks[_id];\r\n        _task.done = !_task.done;\r\n        tasks[_id] = _task;\r\n    }\r\n\r\n}",
  "sourcePath": "D:\\workspace\\myfirstcontract\\contracts\\TasksContract.sol",
  "compiler": {
    "name": "solc",
    "version": "0.8.6+commit.11564f7e.Emscripten.clang"
  },
  "schemaVersion": "3.4.9",
  "updatedAt": "2022-08-30T20:06:44.575Z",
  "networkType": "ethereum",
  "devdoc": {
    "kind": "dev",
    "methods": {},
    "version": 1
  },
  "userdoc": {
    "kind": "user",
    "methods": {},
    "version": 1
  }
}